:100000000C942D000C9416100C9416100C941610D1
:100010000C9416100C9416100C9416100C941010CE
:100020000C9416100C9416100C9416100C941610B8
:100030000C9416100C9416100C9416100C941610A8
:100040000C9416100C9416100C9416100C94161098
:100050000C941610006006DA800011241FBECFE554
:10006000D8E0DEBFCDBFE4E5F0E040E017C0B591D9
:10007000A59135912591059107FD0CC0959185912C
:10008000EF01F92FE82F05900D92A217B307D9F7CA
:10009000FE0104C01D92A217B307E1F7E935F4078A
:0E00A00031F70E946F090C945500F894FFCFC1
:1000AE00206D657465727300206772616D730073E5
:0E00BE00656E64657200726563656976650043
:0600CC0049444C4500040C
:1000D2002F923F924F925F926F927F928F92AF9246
:1000E200BF92CF92DF92EF920F931F93CF93DF9342
:1000F2001C013A01862E59012801C9010E94970468
:100102008C01892B09F418C18AE290E00E949704BD
:10011200EC01892B61F01C8F0B8F21E0A21AB10830
:100122000A0D1B1D61147104810429F431C0C80138
:100132000E94C40C01C1F301849187FC80818D8FE0
:10014200F301849187FC8081882301F1AE01425E34
:100152005F4FA82DC3010196A11DB8E06B0E711C63
:10016200811C2A2FFC017491A7FD7081FA01719301
:10017200AF01E82FF92F0196A11D349127FD30819F
:10018200332321F0681679068A0659F71CA201C0AA
:100192001D8EF4E0FE1518F46894EE24E2F8EA8E5F
:1001A2005E0122E0A20EB11CC5010E940010CE0128
:1001B2000E960E940010DB87CA8785E090E0A0E0DF
:1001C200B0E08E199109A109B1098E879F87A88B8A
:1001D200B98BDF8BCE8B84E0FE01B596DF011D92D9
:1001E2008A95E9F719A6A201B101C8010E94DC07AC
:1001F20099838883C114D10419F0F601D183C08395
:100202000FB6F8940F928091D8068F5F8093D8062C
:100212008091D0069091D106892BD1F5D093D10649
:10022200C093D0068091D806813009F041C000E425
:1002320016E00F2EF7E7CF2EF6E0DF2EF02DC801E5
:100242000E944D0F055F1F4F0C151D05C1F783EA74
:1002520096E00E944D0F88E996E00E944D0F8DE8CE
:1002620096E00E944D0F82E896E00E944D0F87E7CC
:1002720096E00E944D0F83EA96E09093CF0680931A
:10028200CE0688E996E09093CD068093CC0610C006
:100292008091D60681110CC0E091D006F091D10672
:1002A200928D8A8D891720F0D093D106C093D00603
:1002B2008091D3068F5F8093D306EA8D8091D70613
:1002C2008E1710F4E093D7068BE08E9FF001112475
:1002D200E05CF94F0180F281E02DFF83EE832681FD
:1002E200378139872887A681B7811596BC92AE924D
:1002F2001497B782A682EA8D8E9FF0011124E05CEA
:10030200F94FFD87EC8780818F5F80830F900FBE4E
:100312008091D606882361F0E091D006F091D10653
:10032200928D8A8D981730F40E94230A81E005C0CD
:1003320081E003C081E001C08FEFDF91CF911F9177
:100342000F91EF90DF90CF90BF90AF908F907F9002
:0C0352006F905F904F903F902F900895A7
:10035E00CF92DF92EF92FF920F931F93CF93DF9383
:10036E008091D206811109C1C090BA06D090BB0609
:10037E00E090BC06F090BD068FEFC81AD80AE80AC6
:10038E00F80AC092BA06D092BB06E092BC06F09272
:10039E00BD06C114D104E104F104B9F48091CE0676
:1003AE009091CF062091CC063091CD063093CF069A
:1003BE002093CE069093CD068093CC068091D406E2
:1003CE008F5F8093D4060E94050E8091B2069091A5
:1003DE00B306A091B406B091B506C816D906EA06C2
:1003EE00FB0610F480E0B4C080E04BE051E0E091F9
:1003FE00CE06F091CF06908191110DC04FEF5FEFB9
:10040E0060E070E04093B2065093B3066093B4067A
:10041E007093B5069DC0E091CE06F091CF06078091
:10042E00F085E02D0084F185E02D02811381248179
:10043E003581C016D106E206F30648F40093B206E3
:10044E001093B3062093B4063093B50681C0A485ED
:10045E00B585C681D781208531853F832E83C085A2
:10046E00D185268137813D832C839F012E5F3F4F9F
:10047E0011966D917C9112976217730731F4608516
:10048E00718512967C936E931197158614869C91A6
:10049E0091509C93A08DB18D109709F1C289D3898B
:1004AE00648975897F836E83C489D58962897389CE
:1004BE007D836C831196CD91DC911297BF01625FA3
:1004CE007F4FC617D70731F46489758912967C93CE
:1004DE006E931197118E108E9C9191509C93A28DBC
:1004EE009091D7069A1710F4A093D7064A9FD00181
:1004FE001124A05CB94F11960D90BC91A02DB7831D
:10050E00A68316966D917C911797718760871696C4
:10051E00CD91DC9117973D832C8317963C932E93A8
:10052E001697A28D4A9FD0011124A05CB94FB587B2
:10053E00A4879C919F5F9C93A091D006B091D10609
:10054E00228D5A969C91291708F451CF852F4FCFA3
:10055E00E091D006F091D106E28D9BE0E99FF0018B
:10056E001124E05CF94F9081923008F081E0909177
:10057E00D5069923B1F081E014C08091B606909112
:10058E00B706A091B806B091B9060196A11DB11D8E
:10059E008093B6069093B706A093B806B093B906AB
:1005AE0080E0DF91CF911F910F91FF90EF90DF9040
:0405BE00CF9008953D
:1005C200CF92DF92EF92FF920F931F93CF93DF931D
:1005D2000FB6F8940F928091D20681508093D20682
:1005E2008091D2068111C6C08091D80681118BC03C
:1005F200C4C0D8011796ED91FC9118970084F1853B
:10060200E02DA08DB18D8289938964897589EC0171
:100612007F836E838489958962897389EC017D83E6
:100622006C83CF010E9611966D917C91129768178B
:10063200790731F48489958912969C938E93119748
:10064200118E108E8C9181508C93A485B5858681F4
:10065200978160857185EC017F836E8380859185AA
:1006620066817781EC017D836C83CF0102961196BE
:100672006D917C9112976817790731F460857185C5
:1006820012967C936E931197158614862C912150A5
:100692002C93A28D2091D7062A1710F4A093D70687
:1006A2003A9FD0011124A05CB94F11960D90BC91D4
:1006B200A02DB783A68316966D917C9117977187AB
:1006C200608716966D917C911797EB019D838C83C1
:1006D20017969C938E931697A28D3A9FD001112460
:1006E200A05CB94FB587A4878C918F5F8C93A09142
:1006F200D006B091D106928D5A968C91981748F0F7
:100702004093D50606C0E0E0F0E00DE816E03BE0DD
:1007120041E0D8018C9181116CCFEF2B11F00E9436
:10072200050EC090B606D090B706E090B806F090DD
:10073200B906C114D104E104F104A1F0C1E00E94A0
:10074200AF018111C093D506B1E0CB1AD108E108FF
:10075200F108A9F71092B6061092B7061092B806E1
:100762001092B9068091D506882331F00E94230A9F
:1007720081E003C080E001C080E00F900FBEDF91F6
:10078200CF911F910F91FF90EF90DF90CF9008953E
:100792002F923F924F926F927F928F92AF92BF921F
:1007A200CF92DF92EF92FF920F931F93CF93DF933B
:1007B200CDB7DEB72C970FB6F894DEBF0FBECDBF14
:1007C2006C014A875B876C870E831F832887398772
:1007D2001E2DF12C01E03C0180E8882E1301482CEB
:1007E200EEE12E0E311C411CFFE16F0E711C811CCB
:1007F200560188E0A80EB11C0FB6F8940F92F601CC
:10080200968D878D981710F01230F1F4212F4A85BA
:100812005B856C85C6010E94BF0BF6019389992303
:1008220061F0F3E1CF0ED11CB60180E80E946405AD
:10083200882331F00E94230A03C081110E94230AF7
:100842000F900FBE81E05BC08E819F81A885B98524
:10085200892B8A2B8B2B21F40F900FBE80E04FC087
:10086200F11005C0CE0101960E94700FF02E0F907C
:100872000FBE0E94F40F0FB6F8940F92F60181A1F9
:100882008F3F09F411A2F60182A18F3F09F412A24F
:100892000F900FBEBE016A5F7F4FCE0101960E948C
:1008A200C909811126C00FB6F8940F92F1019491F3
:1008B20047FC90810F900FBEF301849187FC8081E9
:1008C200981311C04E815F8168857985C5010E94A8
:1008D200210FC6010E94D30A0E94E10281118CCF2E
:1008E2000E94230A89CFC6010E94D30A0E94E10214
:1008F20083CFC6010E94D30A0E94E10280E02C96B7
:100902000FB6F894DEBF0FBECDBFDF91CF911F911E
:100912000F91FF90EF90DF90CF90BF90AF908F90AC
:0C0922007F906F904F903F902F900895B1
:10092E00CF92DF92EF92FF920F931F93CF93DF93AD
:10093E00EC010E94F40F8091C8069091C906892B94
:10094E0041F5EEEAF6E0A4E6B0E0B183A0831382AF
:10095E001282ECE3F6E0F093C906E093C806138228
:10096E0012821182108288ED95E013969C938E93DD
:10097E001297ED93FC939093C5068093C4069093C3
:10098E00C7068093C60680E090E89093BF068093DA
:10099E00BE06E090BE06F090BF06C7018C239D23D5
:1009AE00892B09F06DC0209709F46DC09E012C5F54
:1009BE003F4FC217D30708F069C02115310509F45E
:1009CE0068C00091C6061091C7060217130708F4F7
:1009DE0063C0C091AE06D091AF06EEEAF6E002C05B
:1009EE00FE01EC018A819B818217930720F4888196
:1009FE0099810097A9F78091C8069091C906C817EA
:100A0E00D90709F44CC0C080D18084E0C80ED11C37
:100A1E0088819981918380834A815B81421B530B2C
:100A2E004930510550F0CE01820F931FFC015383C4
:100A3E0042833B832A830E94280B8A819B81081B59
:100A4E00190B1093C7060093C6062091C406309169
:100A5E00C5060217130720F41093C5060093C406AB
:100A6E00E82AF92AFB82EA82198218828091C2064C
:100A7E009091C30601969093C3068093C20611C04F
:100A8E00C12CD12C0EC0C12CD12C0BC0C12CD12C01
:100A9E0008C0C12CD12C05C0C12CD12C02C0C12C38
:100AAE00D12C0E94E102C601DF91CF911F910F91CF
:0A0ABE00FF90EF90DF90CF900895B5
:100AC800CF93DF93A82FCB010796A11DFC015A2FC6
:100AD8000E94C90FDB011896ED91FC911997A08D22
:100AE800B18DC289D389848995899F838E83C4896E
:100AF800D589828993899D838C839F01225F3F4F8B
:100B080011968D919C9112978217930731F48489DD
:100B1800958912969C938E931197118E108E8C91B5
:100B280081508C938091D206811152C0A485B585DD
:100B3800C681D781808591859F838E83C085D18525
:100B4800868197819D838C839F012E5F3F4F1196ED
:100B58008D919C9112978217930731F48085918526
:100B680012969C938E931197158614868C918150BA
:100B78008C93A28D8091D7068A1710F4A093D7067C
:100B88008BE08A9FD0011124A05CB94F11960D907B
:100B9800BC91A02DB783A68316964D915C911797AB
:100BA800518740871696CD91DC9117973D832C830A
:100BB80017963C932E931697A28D8A9FD0011124E5
:100BC800A05CB94FB587A4878C918F5F8C931CC0AC
:100BD8004DE856E0DA011196CD91DC911297D38B4E
:100BE800C28B8E819F81958B848B8E819F81DC0146
:100BF80015963C932E9314973F832E83518F408FE5
:100C0800DA018C918F5F8C93A091D006B091D106B8
:100C1800928D5A968C91891720F481E08093D5069D
:0A0C280001C080E0DF91CF91089534
:100C32006F927F928F929F92AF92BF92CF92DF92EA
:100C4200EF92FF920F931F93CF93DF93CDB7DEB74F
:100C520029970FB6F894DEBF0FBECDBF8C015B01A2
:100C62002E833F8348875987E12C992493943C0132
:100C720080E8882E6801E3E1CE0ED11C0FB6F8940D
:100C82000F92F801F68CFF20B9F0B501C8010E945D
:100C9200D30EFA94F801F68E8085882349F0085F16
:100CA2001F4FB80180E80E94640581110E94230A47
:100CB2000F900FBE81E059C08E819F81A885B985B2
:100CC200892B8A2B8B2B21F40F900FBE80E04DC015
:100CD200E11005C0CE0101960E94700FE92C0F9021
:100CE2000FBE0E94F40F0FB6F8940F92F80181A183
:100CF2008F3F09F411A2F80182A18F3F09F412A2D9
:100D02000F900FBEBE016A5F7F4FCE0101960E9417
:100D1200C90981111DC0882DB3010E945F0F88236C
:100D220089F04E815F8168857985C6010E94210F15
:100D3200C8010E94D30A0E94E10281119FCF0E9442
:100D4200230A9CCFC8010E94D30A0E94E10296CFD7
:100D5200C8010E94D30A0E94E102882DB3010E94B9
:100D62005F0F882309F48ACF80E029960FB6F894A2
:100D7200DEBF0FBECDBFDF91CF911F910F91FF90CC
:100D8200EF90DF90CF90BF90AF909F908F907F9029
:040D92006F900895C1
:100D96008F929F92AF92BF92CF92DF92EF92FF9285
:100DA600CF93DF936B017C01C42F8090BA0690909D
:100DB600BB06A090BC06B090BD068091D00690916F
:100DC600D10602960E942D0E8FEFC816D806E104B2
:100DD600F104B1F5CC23A1F1E7E7F6E0A181B281F8
:100DE600C091D006D091D106BF83AE83C091D00604
:100DF600D091D10616968D919C91179799878887E1
:100E06001696CD91DC9117978091D0069091D106D8
:100E160002969D838C838091D0069091D10602968E
:100E260017969C938E931697A091D006B091D106F3
:100E36001D96FC93EE931C9780818F5F80833FC045
:100E4600C80CD91CEA1CFB1CE091D006F091D10617
:100E5600C282D382E482F582C814D904EA04FB0470
:100E660068F46091D0067091D1068091CC0690917D
:100E7600CD066E5F7F4F0E944A0C21C06091D0065E
:100E86007091D1068091CE069091CF066E5F7F4F0E
:100E96000E944A0C8091B2069091B306A091B406C6
:100EA600B091B506C816D906EA06FB0640F4C0920C
:100EB600B206D092B306E092B406F092B506DF9180
:100EC600CF91FF90EF90DF90CF90BF90AF909F9023
:040ED6008F9008955C
:100EDA0010C00E94E60F58F00E94DF0F40F029F47C
:100EEA005F3F29F00C94FA0F51110C94EE0F0C94F9
:100EFA0013100E94780E68F39923B1F3552391F3E6
:100F0A00951B550BBB27AA2762177307840738F06E
:100F1A009F5F5F4F220F331F441FAA1FA9F335D0CB
:100F2A000E2E3AF0E0E832D091505040E695001C7F
:100F3A00CAF72BD0FE2F29D0660F771F881FBB1F39
:100F4A00261737074807AB07B0E809F0BB0B802D17
:100F5A00BF01FF2793585F4F3AF09E3F510578F043
:100F6A000C94FA0F0C94EE0F5F3FE4F3983ED4F31F
:100F7A00869577956795B795F7959F5FC9F7880F17
:100F8A00911D9695879597F90895E1E0660F771F69
:100F9A00881FBB1F621773078407BA0720F0621BFA
:0E0FAA00730B840BBA0BEE1F88F7E0950895C9
:100FB80031E1FC013083319722E220833197A3E3AA
:100FC800A08331976083319770833197108231976E
:100FD80060E8608331971082319762E060833197CF
:100FE80063E06083319764E06083319765E06083F4
:100FF800319766E06083319767E06083319768E0F6
:101008006083319769E06083319760E1608331974D
:101018003083319732E13083319733E13083319730
:1010280034E13083319735E13083319736E13083CD
:10103800319737E13083319738E13083319739E19F
:101048003083319730E23083319731E23083319702
:101058002083319723E2208331974083319750834F
:10106800319726E22083319727E22083319728E2BF
:101078002083319729E22083319720E32083319719
:0810880021E3208386970895FF
:1010900011C00E94DF0F38F00E94E60F20F039F4F3
:1010A0009F3F19F426F40C9413100EF4E095E7FB1F
:1010B0000C94FA0FE92F0E94780E58F3BA176207C2
:1010C00073078407950720F079F4A6F50C94ED0FCB
:1010D0000EF4E0950B2EBA2FA02D0B01B901900153
:1010E0000C01CA01A0011124FF27591B99F0593F97
:1010F00050F4503E68F11A16F040A22F232F342FDF
:101100004427585FF3CF469537952795A795F0402C
:101110005395C9F77EF41F16BA0B620B730B840B41
:10112000BAF09150A1F0FF0FBB1F661F771F881FF9
:10113000C2F70EC0BA0F621F731F841F48F4879551
:1011400077956795B795F7959E3F08F0B0CF939543
:0E115000880F08F09927EE0F97958795089560
:10115E00EF92FF920F931F93CF93DF93FC01362FE5
:10116E00892B09F44DC0278D222309F44BC0022F81
:10117E0010E040A1E42EF12C8FEF9FEFB8010E94FA
:10118E00390F6E157F0508F43FC0EF010FB6F894C6
:10119E000F9260817181CB01249F800D911D1124CE
:1011AE0095838483168E73836283015011090E9D7D
:1011BE00C0010F9D900D1E9D900D1124860F971F3F
:1011CE00978386838FEF81A382A331110DC0808513
:1011DE00882391F02896BE0180E80E94640588233A
:1011EE0059F00E94230A08C0CF0108960E944D0FA5
:1011FE00CE0143960E944D0F0F900FBE81E005C0A9
:10120E0080E003C080E001C080E0DF91CF911F91AC
:08121E000F91FF90EF9008957D
:101226000F920FB6F8940F921F9211242F923F92AD
:101236004F925F926F927F928F929F92AF92BF92E0
:10124600CF92DF92EF92FF920F931F932F933F93CC
:101256004F935F936F937F938F939F93AF93BF93B8
:10126600CF93DF93EF93FF93A091D006B091D10671
:101276000DB60D920EB60D920E94AF0181110E941D
:101286007C0AA091D006B091D106CD91CDBFDD915B
:10129600DEBFFF91EF91DF91CF91BF91AF919F910B
:1012A6008F917F916F915F914F913F912F911F91F8
:1012B6000F91FF90EF90DF90CF90BF90AF909F90EF
:1012C6008F907F906F905F904F903F902F901F90E0
:0812D6000F900FBE0F90089568
:1012DE00CF93DF93CDB7DEB728970FB6F894DEBF66
:1012EE000FBECDBF40E064E081E00E94080C9093F9
:1012FE0061008093600041E050E060E070E080E8C3
:10130E0095E20E94A50D84E690E09A83898381E0A0
:10131E0090E09C838B8388EC90E09E838D8382E0AB
:10132E0090E098878F838091600090916100892B67
:10133E0041F1C12CD12CEE24E3948E010F5F1F4F8F
:10134E0024E630E04DEB50E060E084E59EE00E9444
:10135E0069000C5F1F4F24E630E04DEB50E060E07B
:10136E0084E59EE00E94690000E010E024E630E093
:10137E0044EC50E060E085E79BE00E9469000E942B
:04138E00FF0CFFCF82
:10139200CF92DF92EF92FF920F931F93CF93DF933F
:1013A200FB010FB6F8940F924091BA065091BB061A
:1013B2006091BC067091BD0600811181228133814A
:1013C2000F3FAFEF1A072105310581F1EC01C9800A
:1013D200DA80EB80FC80A091D406B881BA1759F06C
:1013E2004C155D056E057F0530F010821182128268
:1013F200138281E01CC04C195D096E097F094017F8
:1014020051076207730760F4041B150B260B370B99
:1014120000831183228333830E94700F80E007C010
:10142200108211821282138281E001C080E00F904B
:101432000FBEDF91CF911F910F91FF90EF90DF9040
:04144200CF900895AA
:101446000F920FB6F8940F921F9211242F923F928B
:101456004F925F926F927F928F929F92AF92BF92BE
:10146600CF92DF92EF92FF920F931F932F933F93AA
:101476004F935F936F937F938F939F93AF93BF9396
:10148600CF93DF93EF93FF93A091D006B091D1064F
:101496000DB60D920EB60D920E947C0AA091D00652
:1014A600B091D106CD91CDBFDD91DEBFFF91EF9119
:1014B600DF91CF91BF91AF919F918F917F916F9166
:1014C6005F914F913F912F911F910F91FF90EF9058
:1014D600DF90CF90BF90AF909F908F907F906F904E
:1014E6005F904F903F902F901F900F900FBE0F90E0
:0214F600089557
:1014F8008091D206882321F081E08093D506089553
:101508001092D5068091D706282F30E09BE0899F5E
:10151800F0011124E05CF94F908191110EC04BE06D
:101528008150282F30E0429FF001439FF00D112495
:10153800E05CF94F9081992399F39BE0929FA00179
:10154800939F500D1124DA01A05CB94F1196ED91CB
:10155800FC9112970480F581E02D1296FC93EE938E
:1015680011974D5B594FE417F50729F444815581CC
:10157800FD01528341839BE0929FF001939FF00D00
:101588001124E05CF94F0180F281E02D208531853E
:0E1598003093D1062093D0068093D706089595
:1015A600CF92DF92EF920F931F93CF938C010FB6DA
:1015B600F8940F92FC01C2A11C16C4F48389811110
:1015C60006C014C0F8018389811107C00FC06801E5
:1015D600F3E1CF0ED11C80E8E82E8E2DB6010E94D5
:1015E600640581110E940410C15061F78FEFF80164
:1015F60082A30F900FBE0FB6F8940F92C1A11C16CE
:10160600C4F48085811106C014C0F801808581115B
:1016160007C00FC06801F8E0CF0ED11C80E8E82EA5
:101626008E2DB6010E94640581110E940410C150DE
:1016360061F78FEFF80181A30F900FBECF911F9135
:0A1646000F91EF90DF90CF90089510
:10165000CF93DF93DC01EEEAF6E001C0F9012081CF
:1016600031812A173B07D0F382819381AF01480F64
:10167000591FA417B50749F412964D915C91139721
:10168000840F951F93838283DF0112968D919C9125
:101690001397ED01C80FD91F2C173D07D9F42091DE
:1016A000C8063091C906C217D30781F02A813B8151
:1016B000820F931F13969C938E931297C081D181B2
:1016C0008881998111969C938E9307C01196DC9323
:1016D000CE9303C011963C932E93AE17BF0711F023
:0A16E000B183A083DF91CF9108953C
:1016EA00CF93DF93CDB7DEB763970FB6F894DEBF1B
:1016FA000FBECDBF2EEA30E040E088E0F901DE01FE
:10170A001596742F0E94B10F26EB30E040E087E077
:10171A00F901DE011D96742F0E94B10F20E030E01E
:10172A00A901BE016F5F7F4F8091600090916100B7
:10173A000E9419068130B9F489819A810E949A0E11
:10174A008B819C818130910529F4CE0105960E94F6
:10175A00A20F06C0029721F4CE010D960E94A20F95
:10176A008DE00E94081062E370E080E090E00E9441
:04177A00B70ED4CF03
:10177E000F931F93CF93DF93EC01022F1E8D28A1A1
:10178E002223B9F1011116C030E08A819B810E949B
:10179E00080F28A18A819B81820F911D9B838A83CA
:1017AE002C813D818217930720F1888199819B833B
:1017BE008A831FC030E08E819F810E94080F88A10E
:1017CE0090E09195819591092E813F81280F391FC7
:1017DE003F832E83488159812417350730F42C819D
:1017EE003D81820F931F9F838E83023011F411115E
:1017FE0011501F5F1E8F80E0DF91CF911F910F91CF
:02180E0008953B
:101810000F931F93CF93DF93282F362F882361F1E7
:10182000682F70E08FEF9FEF0E94390F832F90E0B9
:101830006817790720F1239FC00111248D3D4FEFD8
:10184000940700F5D32FC22F83960E9497048C0132
:101850000097D1F0D11104C0FC019183808304C0B2
:101860008396F80191838083F801C78FD0A361E04C
:10187000C8010E94AF0808C000E010E005C000E009
:1018800010E002C000E010E0C801DF91CF911F918D
:041890000F91089517
:101894000F931F93CF93DF93EB01088119812A8162
:1018A4003B810F3F4FEF14072105310521F4FC0163
:1018B400A185B28511C0DC01139601C0DF01149625
:1018C400ED91FC91159740815181628173810417D8
:1018D40015072607370790F71496ED91FC91159795
:1018E400FD83EC83D783C683BF83AE831596DC93D5
:1018F400CE9314979B878A87FC0120812F5F2083D6
:0A190400DF91CF911F910F9108951C
:10190E00E89409C097FB3EF490958095709561958B
:10191E007F4F8F4F9F4F9923A9F0F92F96E9BB2741
:10192E009395F695879577956795B795F111F8CFBD
:10193E00FAF4BB0F11F460FF1BC06F5F7F4F8F4F28
:10194E009F4F16C0882311F096E911C0772321F01E
:10195E009EE8872F762F05C0662371F096E8862FB6
:10196E0070E060E02AF09A95660F771F881FDAF70D
:0A197E00880F9695879597F9089554
:10198800CF93DF930097A1F1FC0134972281338133
:101998004091BE065091BF06B90164237523672B99
:1019A80039F160817181672B19F5EF0140955095E8
:1019B80024233523338322830E94F40F2091C60603
:1019C8003091C7068A819B81820F931F9093C70627
:1019D8008093C606CE010E94280B8091C006909184
:1019E800C10601969093C1068093C0060E94E10249
:0619F800DF91CF9108957C
:1019FE00CF92DF92EF920F931F930F2EFAECCF2E12
:101A0E00F6E0DF2EF02DE12C00E010E025E530E0D1
:101A1E004CEC50E060E088E39DE00E94690081306C
:101A2E00D1F4F8948FEF9FEFA0E0B0E08093B20670
:101A3E009093B306A093B406B093B50681E080935D
:101A4E00D6061092BA061092BB061092BC061092E1
:101A5E00BD060E94700D1F910F91EF90DF90CF90F9
:021A6E000895D9
:101A700002E816E00F2EF0E4EF2EF6E0FF2EF02D38
:101A80008091D906882329F10FB6F8940F92D801D6
:101A90001796ED91FC911897C085D185CE010296DD
:101AA0000E942D0E8091D80681508093D806809197
:101AB000D90681508093D9060F900FBE8B8D9C8DD7
:101AC0000E94C40CCE010E94C40C8091D9068111E1
:101AD000DBCFF7018081823098F20E94230AD0CFB9
:101AE0001BBC89EF8ABD8BE08EBD89B7806189BF41
:101AF000A091D006B091D106CD91CDBFDD91DEBFD2
:101B0000FF91EF91DF91CF91BF91AF919F918F9115
:101B10007F916F915F914F913F912F911F910F9105
:101B2000FF90EF90DF90CF90BF90AF909F908F90FD
:101B30007F906F905F904F903F902F901F900F90ED
:0A1B40000FBE0F90089581E0089594
:101B4A009B016AB122953295307F3227207F322756
:101B5A00262B2AB92AB1440F551F440F551F440F8B
:101B6A00551F422B4AB9579ABC01990F880B990BFA
:101B7A000E94890C9B01AC0160E074E284E799E45D
:101B8A000E940C1020E030E040E85FE30E94D10F91
:101B9A000E94D80F69B96F3F710511F00CF070BD42
:021BAA0008959C
:101BAC000E94800E88F09F5798F0B92F9927B75153
:101BBC00B0F0E1F0660F771F881F991F1AF0BA95E5
:101BCC00C9F714C0B13091F00E94ED0FB1E0089547
:101BDC000C94ED0F672F782F8827B85F39F0B93F39
:101BEC00CCF3869577956795B395D9F73EF4909598
:0E1BFC008095709561957F4F8F4F9F4F089594
:101C0A00E091CE06F091CF06808181110DC08FEF51
:101C1A009FEFA0E0B0E08093B2069093B306A09342
:101C2A00B406B093B5060895E091CE06F091CF06BA
:101C3A000780F085E02D80819181A281B381809314
:101C4A00B2069093B306A093B406B093B50608956E
:101C5A00CF93DF93FC01A285B385C481D5818681A8
:101C6A0097819F838E83C681D781848195819D8345
:101C7A008C8311968D919C911297E817F90731F48C
:101C8A008681978112969C938E931197138612865A
:0E1C9A008C9181508C938C91DF91CF910895A5
:101CA800CF93DF9300D000D0CDB7DEB7FC018081A1
:101CB8009181A281B38189839A83AB83BC83CE014E
:101CC80001963C01F0E88F2EEE24E39400E010E04A
:101CD8009801682DA30180916000909161000E9495
:081CE800C9030E94230AF0CF9A
:101CF00057FD9058440F551F59F05F3F71F04795BD
:101D0000880F97FB991F61F09F3F79F087950895A1
:101D1000121613061406551FF2CF4695F1DF08C0C0
:101D2000161617061806991FF1CF869571056105DD
:041D30000894089576
:101D3400CF93DF93CDB7DEB72B970FB6F894DEBF02
:101D44000FBECDBF4AE0BE016F5F7F4F0E94BE0F42
:101D5400CE0101960E94A20F2B960FB6F894DEBF17
:0A1D64000FBECDBFDF91CF910895AF
:101D6E00CF92DF92EF92FF926B017C01672B682B73
:101D7E00692B59F00E94F40F40E0C701B6010E9492
:101D8E00CB060E94E102811102C00E94230AFF903D
:081D9E00EF90DF90CF90089553
:101DA600FC0120A12223B1F030E046815781420F89
:101DB600531F57834683848195814817590720F01E
:101DC6008081918197838683CB014681578160E824
:061DD6000E94080F0895B1
:101DDC00BB27FB015527AA27880F991FAA1FA417F9
:101DEC0010F0A41B83955051B9F7A05DAA3308F0ED
:101DFC00A95DA193009779F7B111B1931192CB0121
:041E0C000C94920F91
:101E1000CF92DF92EF92DC016A01E62E280F391F84
:101E2000A217B30751F0F6014491E7FC40814D93AE
:101E30004FEFC41AD40AE40AF3CFEF90DF90CF90AB
:021E4000089503
:101E4200CF92DF92EF92FF926A017B016091D006FE
:101E52007091D106625F7F4F0E944A0C41E0C70138
:101E6200B6010E94CB06FF90EF90DF90CF900895CD
:101E7200AA1BBB1B51E107C0AA1FBB1FA617B707AE
:101E820010F0A61BB70B881F991F5A95A9F78095CA
:081E92009095BC01CD010895FB
:101E9A00FC010396928381834FEF5FEF60E070E06D
:101EAA004383548365837683908787839287818768
:041EBA0010820895F5
:101EBE000FB6F8940F92A82FCB014E96A11DFC01E0
:101ECE009491A7FD90810F900FBE81E0911180E05B
:021EDE00089565
:101EE0002091D406FC0120834091BA065091BB0694
:101EF0006091BC067091BD064183528363837483F5
:021F0000089542
:101F0200092E0394000C11F4882352F0BB0F40F405
:101F1200BF2B11F460FF04C06F5F7F4F8F4F9F4F45
:021F2200089520
:101F2400DC01FC01672F71917723E1F7329704C03C
:101F34007C916D9370836291AE17BF07C8F30895C7
:101F4400CF93DF93EC018881882331F021960E949E
:0E1F5400081089918111FBCFDF91CF91089584
:101F6200992777FD05C005900D920197E1F7089535
:0A1F720001900D920197E1F7089528
:101F7C00BB274A3031F4992322F4BDE29095819528
:061F8C009F4F0C94EF0EC4
:101F920057FD03C0659175910895619171910895FE
:0E1FA2005058BB27AA270E9448080C94810FB4
:0E1FB0000E94D60D6894B1110C94EE0F0895A6
:0E1FBE0000240A941616170618060906089540
:0E1FCC0000240A941216130614060506089542
:0E1FDA00E894BB2766277727CB0197F9089577
:0C1FE8008091D2068F5F8093D20608958E
:0C1FF40097F99F6780E870E060E00895B6
:08200000FC011386128608950D
:0820080081E08093D5060895E4
:082010005D9BFECF8CB9089521
:082018000E946D070C94810F7A
:062020000E94130918954F
:062026009FEF80EC08951D
:04202C000C94000010
:00000001FF
