:100000000C9433000C943F0C0C943F0C0C943F0C5C
:100010000C943F0C0C943F0C0C943F0C0C94390C3A
:100020000C943F0C0C943F0C0C943F0C0C943F0C24
:100030000C943F0C0C943F0C0C943F0C0C943F0C14
:100040000C943F0C0C943F0C0C943F0C0C943F0C04
:100050000C943F0C0060066A80066A067D001882D8
:10006000067D06E2800011241FBECFE5D8E0DEBF8A
:10007000CDBFE4E5F0E040E017C0B591A591359122
:100080002591059107FD0CC095918591EF01F92F00
:10009000E82F05900D92A217B307D9F7FE0104C00F
:1000A0001D92A217B307E1F7E536F40731F70E9476
:0A00B000230A0C945B00F894FFCFC4
:0F00BA007072696E7465720073656172636800BD
:0600C90049444C45000310
:1000D0002F923F924F925F926F927F928F92AF9248
:1000E000BF92CF92DF92EF920F931F93CF93DF9344
:1000F0001C013A01862E59012801C9010E94C8033A
:100100008C01892B09F419C18AE290E00E94C8038E
:10011000EC01892B61F01C8F0B8F21E0A21AB10832
:100120000A0D1B1D61147104810429F431C0C8013A
:100130000E94120902C1F301849187FC80818D8F96
:10014000F301849187FC8081882301F1AE01425E36
:100150005F4FA82DC3010196A11DB8E06B0E711C65
:10016000811C2A2FFC017491A7FD7081FA01719303
:10017000AF01E82FF92F0196A11D349127FD3081A1
:10018000332321F086159705A80559F71CA201C055
:100190001D8EF3E0FE1520F40F2EF3E0EF2EF02D70
:1001A000EA8E5E0122E0A20EB11CC5010E942D0C58
:1001B000CE010E960E942D0CDB87CA8784E090E06A
:1001C000A0E0B0E08E199109A109B1098E879F873F
:1001D000A88BB98BDF8BCE8B84E0FE01B596DF0157
:1001E0001D928A95E9F719A6A201B101C8010E94E2
:1001F0001A0699838883C114D10419F0F601D183BA
:10020000C0830FB6F8940F928091E0068F5F8093C1
:10021000E0068091D8069091D906892BD1F5D0932C
:10022000D906C093D8068091E006813009F041C01C
:100230008EE396E00E94C50B89E496E00E94C50B10
:1002400084E596E00E94C50B8FE596E00E94C50B01
:1002500089EA96E00E94C50B8EE996E00E94C50BE4
:1002600083E996E00E94C50B88E896E00E94C50BE2
:100270008DE796E00E94C50B89EA96E09093D70639
:100280008093D6068EE996E09093D5068093D406A7
:1002900010C08091DE0681110CC0E091D806F0916B
:1002A000D906928D8A8D891720F0D093D906C093F4
:1002B000D8068091DB068F5F8093DB06EA8D809104
:1002C000DF068E1710F4E093DF068BE08E9FF001BF
:1002D0001124E25CF94F0180F281E02DFF83EE836F
:1002E0002681378139872887A681B7811596BC92E8
:1002F000AE921497B782A682EA8D8E9FF0011124E8
:10030000E25CF94FFD87EC8780818F5F80830F90DF
:100310000FBE8091DE06882361F0E091D806F0914F
:10032000D906928D8A8D981730F40E94490781E092
:1003300005C081E003C081E001C08FEFDF91CF9164
:100340001F910F91EF90DF90CF90BF90AF908F9063
:0E0350007F906F905F904F903F902F90089598
:10035E00CF92DF92EF92FF920F931F93CF93DF9383
:10036E008091DA06811108C1C090C006D090C106F6
:10037E00E090C206F090C3068FEFC81AD80AE80ABA
:10038E00F80AC092C006D092C106E092C206F09260
:10039E00C306C114D104E104F104B9F48091D60668
:1003AE009091D7062091D4063091D5063093D7067A
:1003BE002093D6069093D5068093D4068091DC06C2
:1003CE008F5F8093DC060E94D90A8091B8069091C7
:1003DE00B906A091BA06B091BB06C816D906EA06B0
:1003EE00FB0610F480E0B3C080E04BE051E0E091FA
:1003FE00D606F091D706908191110CC04FEF5FEFAA
:10040E00BA014093B8065093B9066093BA0670933A
:10041E00BB069DC0E091D606F091D7060780F08509
:10042E00E02D0084F185E02D028113812481358138
:10043E00C016D106E206F30648F40093B8061093F0
:10044E00B9062093BA063093BB0681C0A485B58544
:10045E00C681D781208531853F832E83C085D18586
:10046E00268137813D832C839F012E5F3F4F11964E
:10047E006D917C9112976217730731F460857185C7
:10048E0012967C936E931197158614869C919150BB
:10049E009C93A08DB18D109709F1C289D38964897F
:1004AE0075897F836E83C489D589628973897D83BB
:1004BE006C831196CD91DC911297BF01625F7F4FD5
:1004CE00C617D70731F46489758912967C936E939B
:1004DE001197118E108E9C9191509C93A28D90919C
:1004EE00DF069A1710F4A093DF064A9FD00111245D
:1004FE00A25CB94F11960D90BC91A02DB783A68327
:10050E0016966D917C911797718760871696CD918F
:10051E00DC9117973D832C8317963C932E93169759
:10052E00A28D4A9FD0011124A25CB94FB587A48732
:10053E009C919F5F9C93A091D806B091D906228D75
:10054E005A969C91291708F452CF852F50CFE091DF
:10055E00D806F091D906E28D9BE0E99FF0011124B7
:10056E00E25CF94F9081923008F081E09091DD06C7
:10057E009923B1F081E014C08091BC069091BD0624
:10058E00A091BE06B091BF060196A11DB11D80932C
:10059E00BC069093BD06A093BE06B093BF0680E046
:1005AE00DF91CF911F910F91FF90EF90DF90CF9041
:0205BE0008959E
:1005C000CF92DF92EF92FF920F931F93CF93DF931F
:1005D0000FB6F8940F928091DA0681508093DA0674
:1005E0008091DA068111C6C08091E00681118BC02E
:1005F000C4C0D8011796ED91FC9118970084F1853D
:10060000E02DA08DB18D8289938964897589EC0173
:100610007F836E838489958962897389EC017D83E8
:100620006C83CF010E9611966D917C91129768178D
:10063000790731F48489958912969C938E9311974A
:10064000118E108E8C9181508C93A485B5858681F6
:10065000978160857185EC017F836E8380859185AC
:1006600066817781EC017D836C83CF0102961196C0
:100670006D917C9112976817790731F460857185C7
:1006800012967C936E931197158614862C912150A7
:100690002C93A28D2091DF062A1710F4A093DF0679
:1006A0003A9FD0011124A25CB94F11960D90BC91D4
:1006B000A02DB783A68316966D917C9117977187AD
:1006C000608716966D917C911797EB019D838C83C3
:1006D00017969C938E931697A28D3A9FD001112462
:1006E000A25CB94FB587A4878C918F5F8C93A09142
:1006F000D806B091D906928D5A968C91981748F0E9
:100700004093DD0606C0E0E0F0E003E916E03BE0E0
:1007100041E0D8018C9181116CCFEF2B11F00E9438
:10072000D90AC090BC06D090BD06E090BE06F090FD
:10073000BF06C114D104E104F104A1F0C1E00E949C
:10074000AF018111C093DD06B1E0CB1AD108E108F9
:10075000F108A9F71092BC061092BD061092BE06D1
:100760001092BF068091DD06882331F00E94490770
:1007700081E003C080E001C080E00F900FBEDF91F8
:10078000CF911F910F91FF90EF90DF90CF90089540
:10079000CF92DF92EF92FF920F931F93CF93DF934D
:1007A000EC010E94210C8091D0069091D106892BFA
:1007B00041F5E4EBF6E0A2E6B0E0B183A08313825A
:1007C0001282EAE3F6E0F093D106E093D0061382BA
:1007D00012821182108288ED95E013969C938E937D
:1007E0001297ED93FC939093CD068093CC06909353
:1007F000CF068093CE0680E090E89093C706809362
:10080000C606E090C606F090C706C7018C239D235C
:10081000892B09F06DC0209709F46DC09E012C5FF3
:100820003F4FC217D30708F069C02115310509F4FD
:1008300068C00091CE061091CF060217130708F486
:1008400063C0C091B406D091B506E4EBF6E002C0F7
:10085000FE01EC018A819B818217930720F4888135
:1008600099810097A9F78091D0069091D106C81779
:10087000D90709F44CC0C080D18084E0C80ED11CD7
:1008800088819981918380834A815B81421B530BCC
:100890004930510550F0CE01820F931FFC01538364
:1008A00042833B832A830E944B088A819B81081BD9
:1008B000190B1093CF060093CE062091CC063091F1
:1008C000CD060217130720F41093CD060093CC0633
:1008D000E82AF92AFB82EA82198218828091CA06E4
:1008E0009091CB0601969093CB068093CA0611C0D7
:1008F000C12CD12C0EC0C12CD12C0BC0C12CD12CA1
:1009000008C0C12CD12C05C0C12CD12C02C0C12CD7
:10091000D12C0E94E002C601DF91CF911F910F916F
:0A092000FF90EF90DF90CF90089554
:10092A008F929F92AF92BF92CF92DF92EF92FF92F5
:10093A00CF93DF936B017C01C42F8090C006909007
:10094A00C106A090C206B090C3068091D8069091C5
:10095A00D90602960E94B20A8FEFC816D806E80690
:10096A00F806B1F5CC23A1F1EDE7F6E0A181B28159
:10097A00C091D806D091D906BF83AE83C091D8065C
:10098A00D091D90616968D919C9117979987888749
:10099A001696CD91DC9117978091D8069091D90639
:1009AA0002969D838C838091D8069091D9060296EF
:1009BA0017969C938E931697A091D806B091D90654
:1009CA001D96FC93EE931C9780818F5F80833FC0B6
:1009DA00C80CD91CEA1CFB1CE091D806F091D90678
:1009EA00C282D382E482F582C814D904EA04FB04E1
:1009FA0068F46091D8067091D9068091D4069091D6
:100A0A00D5066E5F7F4F0E94980821C06091D80674
:100A1A007091D9068091D6069091D7066E5F7F4F66
:100A2A000E9498088091B8069091B906A091BA06DA
:100A3A00B091BB06C816D906EA06FB0640F4C09276
:100A4A00B806D092B906E092BA06F092BB06DF91D8
:100A5A00CF91FF90EF90DF90CF90BF90AF909F9093
:040A6A008F900895CC
:100A6E00CF92DF92EF92CF93DF932091D806309101
:100A7E00D9068217930709F461C0009709F45EC086
:100A8E000FB6F8940F926C0120E8E22E4E2D9601CF
:100A9E00245F3F4F4F4FF901542F0E94F60B6D57B5
:100AAE00764009F049C028E1C20ED11CE11CF601C6
:100ABE005E2D0E94F60B26E063397207E9F1672B73
:100ACE00D9F5EC016C0182E0C80ED11CC6010E9462
:100ADE00B20AEA8D8091DF068E1710F4E093DF06DE
:100AEE008BE08E9FF0011124E25CF94F0180F281C0
:100AFE00E02DFF83EE832681378139872887A681F3
:100B0E00B7811596DC92CE921497D782C682EA8D63
:100B1E008E9FF0011124E25CF94FFD87EC878081F6
:100B2E008F5F8083E091D806F091D9069A8D828DE1
:100B3E00981710F00E9449070F900FBEDF91CF91CA
:080B4E00EF90DF90CF900895B5
:100B560010C00E94130C58F00E940C0C40F029F4AF
:100B66005F3F29F00C94270C51110C941B0C0C942C
:100B76003C0C0E94490B68F39923B1F3552391F37A
:100B8600951B550BBB27AA2762177307840738F0F6
:100B96009F5F5F4F220F331F441FAA1FA9F335D053
:100BA6000E2E3AF0E0E832D091505040E695001C07
:100BB600CAF72BD0FE2F29D0660F771F881FBB1FC1
:100BC600261737074807AB07B0E809F0BB0B802D9F
:100BD600BF01FF2793585F4F3AF09E3F510578F0CB
:100BE6000C94270C0C941B0C5F3FE4F3983ED4F353
:100BF600869577956795B795F7959F5FC9F7880F9F
:100C0600911D9695879597F90895E1E0660F771FF0
:100C1600881FBB1F621773078407BA0720F0621B81
:0E0C2600730B840BBA0BEE1F88F7E095089550
:100C340031E1FC013083319722E220833197A3E331
:100C4400A0833197608331977083319710823197F5
:100C540060E8608331971082319762E06083319756
:100C640063E06083319764E06083319765E060837B
:100C7400319766E06083319767E06083319768E07D
:100C84006083319769E06083319760E160833197D5
:100C94003083319732E13083319733E130833197B8
:100CA40034E13083319735E13083319736E1308355
:100CB400319737E13083319738E13083319739E127
:100CC4003083319730E23083319731E2308331978A
:100CD4002083319723E220833197408331975083D7
:100CE400319726E22083319727E22083319728E247
:100CF4002083319729E22083319720E320833197A1
:080D040021E320838697089586
:100D0C0011C00E940C0C38F00E94130C20F039F426
:100D1C009F3F19F426F40C943C0C0EF4E095E7FB81
:100D2C000C94270CE92F0E94490B58F3BA17620751
:100D3C0073078407950720F079F4A6F50C941A0C28
:100D4C000EF4E0950B2EBA2FA02D0B01B9019001DA
:100D5C000C01CA01A0011124FF27591B99F0593F1E
:100D6C0050F4503E68F11A16F040A22F232F342F66
:100D7C004427585FF3CF469537952795A795F040B4
:100D8C005395C9F77EF41F16BA0B620B730B840BC9
:100D9C00BAF09150A1F0FF0FBB1F661F771F881F81
:100DAC00C2F70EC0BA0F621F731F841F48F48795D9
:100DBC0077956795B795F7959E3F08F0B0CF9395CB
:0E0DCC00880F08F09927EE0F979587950895E8
:100DDA000F920FB6F8940F921F9211242F923F92FE
:100DEA004F925F926F927F928F929F92AF92BF9231
:100DFA00CF92DF92EF92FF920F931F932F933F931D
:100E0A004F935F936F937F938F939F93AF93BF9308
:100E1A00CF93DF93EF93FF93A091D806B091D906B1
:100E2A000DB60D920EB60D920E94AF0181110E946D
:100E3A00A207A091D806B091D906CD91CDBFDD9178
:100E4A00DEBFFF91EF91DF91CF91BF91AF919F915B
:100E5A008F917F916F915F914F913F912F911F9148
:100E6A000F91FF90EF90DF90CF90BF90AF909F903F
:100E7A008F907F906F905F904F903F902F901F9030
:080E8A000F900FBE0F900895B8
:100E92000F920FB6F8940F921F9211242F923F9245
:100EA2004F925F926F927F928F929F92AF92BF9278
:100EB200CF92DF92EF92FF920F931F932F933F9364
:100EC2004F935F936F937F938F939F93AF93BF9350
:100ED200CF93DF93EF93FF93A091D806B091D906F9
:100EE2000DB60D920EB60D920E94A207A091D806E1
:100EF200B091D906CD91CDBFDD91DEBFFF91EF91CB
:100F0200DF91CF91BF91AF919F918F917F916F911F
:100F12005F914F913F912F911F910F91FF90EF9011
:100F2200DF90CF90BF90AF909F908F907F906F9007
:100F32005F904F903F902F901F900F900FBE0F9099
:020F4200089510
:100F44008091DA06882321F081E08093DD060895FC
:100F54001092DD068091DF06282F30E09BE0899F08
:100F6400F0011124E25CF94F908191110EC04BE025
:100F74008150282F30E0429FF001439FF00D11244F
:100F8400E25CF94F9081992399F39BE0929FA00131
:100F9400939F500D1124DA01A25CB94F1196ED9183
:100FA400FC9112970480F581E02D1296FC93EE9348
:100FB40011974F5B594FE417F50729F44481558184
:100FC400FD01528341839BE0929FF001939FF00DBA
:100FD4001124E25CF94F0180F281E02D20853185F6
:0E0FE4003093D9062093D8068093DF06089537
:100FF2000F931F93CF93DF93EC010FB6F8940F92E8
:10100200892B21F4C091D806D091D9068E010E5FAA
:101012001F4FC8010E94B20A888D998D892B21F039
:10102200CE010E960E94B20AB8018DE796E00E94A8
:101032006B0B89A5813009F419A60F900FBE809120
:10104200DE06882339F00FB6F8940F920E94D90A6F
:101052000F900FBE8091D8069091D906C817D90774
:10106200A1F48091DE06882319F00E9449070DC081
:1010720090917D068091E006981305C01092D906E2
:101082001092D80602C00E94A207DF91CF911F9151
:041092000F9108951D
:10109600CF93DF93DC01E4EBF6E001C0F901208198
:1010A60031812A173B07D0F382819381AF01480F24
:1010B600591FA417B50749F412964D915C911397E1
:1010C600840F951F93838283DF0112968D919C91E5
:1010D6001397ED01C80FD91F2C173D07D9F420919E
:1010E600D0063091D106C217D30781F02A813B8101
:1010F600820F931F13969C938E931297C081D18172
:101106008881998111969C938E9307C01196DC93E2
:10111600CE9303C011963C932E93AE17BF0711F0E2
:0A112600B183A083DF91CF910895FB
:101130000F931F93CF93DF93EB01088119812A81CD
:101140003B810F3F4FEF14072407340721F4FC01C4
:10115000A185B28511C0DC01139601C0DF01149690
:10116000ED91FC9115974081518162817381041743
:1011700015072607370790F71496ED91FC91159700
:10118000FD83EC83D783C683BF83AE831596DC9340
:10119000CE9314979B878A87FC0120812F5F208341
:0A11A000DF91CF911F910F91089588
:1011AA00E89409C097FB3EF49095809570956195F7
:1011BA007F4F8F4F9F4F9923A9F0F92F96E9BB27AD
:1011CA009395F695879577956795B795F111F8CF29
:1011DA00FAF4BB0F11F460FF1BC06F5F7F4F8F4F94
:1011EA009F4F16C0882311F096E911C0772321F08A
:1011FA009EE8872F762F05C0662371F096E8862F22
:10120A0070E060E02AF09A95660F771F881FDAF778
:0A121A00880F9695879597F90895BF
:10122400CF93DF930097A1F1FC013497228133819E
:101234004091C6065091C706B90164237523672BF4
:1012440039F160817181672B19F5EF014095509553
:1012540024233523338322830E94210C2091CE063C
:101264003091CF068A819B81820F931F9093CF0682
:101274008093CE06CE010E944B088091C8069091BF
:10128400C90601969093C9068093C8060E94E0029D
:06129400DF91CF910895E7
:10129A0008E816E00F2EFEE3EF2EF6E0FF2EF02D03
:1012AA008091E106882329F10FB6F8940F92D801AC
:1012BA001796ED91FC911897C085D185CE010296BB
:1012CA000E94B20A8091E00681508093E0068091E4
:1012DA00E10681508093E1060F900FBE8B8D9C8DA5
:1012EA000E941209CE010E9412098091E106811121
:1012FA00DBCFF7018081823098F20E944907D0CF74
:10130A00CF92DF92EF920F931F930F2EF2EDCF2E13
:10131A00F6E0DF2EF02DE12C00E010E025E530E0CC
:10132A0049EC50E060E08DE499E00E946800813069
:10133A00C9F4F8948FEF9FEFDC018093B80690937D
:10134A00B906A093BA06B093BB0681E08093DE0685
:10135A001092C0061092C1061092C2061092C306DD
:10136A000E94BD091F910F91EF90DF90CF900895D1
:10137A001BBC89EF8ABD8BE08EBD89B7806189BFAE
:10138A00A091D806B091D906CD91CDBFDD91DEBF2F
:10139A00FF91EF91DF91CF91BF91AF919F918F9183
:1013AA007F916F915F914F913F912F911F910F9173
:1013BA00FF90EF90DF90CF90BF90AF909F908F906B
:1013CA007F906F905F904F903F902F901F900F905B
:0A13DA000FBE0F90089581E0089502
:1013E4009B016AB122953295307F3227207F3227C4
:1013F400262B2AB92AB1440F551F440F551F440FF9
:10140400551F422B4AB9579ABC01990F880B990B67
:101414000E94D7089B01AC0160E074E284E799E480
:101424000E94350C20E030E040E85FE30E94FE0BB0
:101434000E94050C69B96F3F710511F00CF070BD85
:02144400089509
:1014460061E070E080E090E00E94530A41E050E0E5
:1014560060E070E080E895E20E94F2090F2EF0E667
:10146600CF2EF0E0DF2EF02D6894EE24E1F800E0B8
:1014760010E024E630E04AEB50E060E085E29BE0D5
:101486000E946800C12CD12C24E630E042EC50E0EA
:1014960060E080E09BE00E9468000E948509FFCF23
:1014A600672BC9F08130910569F01CF4892B39F05E
:1014B60008958230910549F0039751F008958FEF12
:1014C6008ABB08958FEF87BB08958FEF84BB08957D
:1014D6008FEF81BB08958130910561F01CF4892B53
:1014E60039F008958230910539F0039739F008955F
:1014F6001ABA089517BA089514BA089511BA089534
:101506000E94510B88F09F5798F0B92F9927B75131
:10151600B0F0E1F0660F771F881F991F1AF0BA9591
:10152600C9F714C0B13091F00E941A0CB1E00895C9
:101536000C941A0C672F782F8827B85F39F0B93FBB
:10154600CCF3869577956795B395D9F73EF4909544
:0E1556008095709561957F4F8F4F9F4F089540
:10156400CF93DF93FC01A285B385C481D5818681A5
:1015740097819F838E83C681D781848195819D8342
:101584008C8311968D919C911297E817F90731F489
:101594008681978112969C938E9311971386128657
:0E15A4008C9181508C938C91DF91CF910895A2
:1015B200E091D606F091D706808181110CC08FEFA1
:1015C2009FEFDC018093B8069093B906A093BA0608
:1015D200B093BB060895E091D606F091D706078036
:1015E200F085E02D80819181A281B3818093B8063C
:0E15F2009093B906A093BA06B093BB06089575
:101600008AE696E00E94E70B8DE00E94310C62E0D2
:1016100070E080E090E00E94A90BC1E0D0E021964C
:101620008AE696E00E94E70B8DE00E94310C62E0B2
:1016300070E080E090E00E94A90BC530D10579F7F9
:0A16400080E090E00E94F907EACF75
:10164A008091C4069091C50601969093C506809331
:10165A00C40680E090E00E948C0B62E370E080E0B8
:10166A0090E00E94A90B8091C4069091C506449708
:10167A0039F780916000909161000E9437051092BD
:08168A00C5061092C406DCCF76
:1016920057FD9058440F551F59F05F3F71F0479521
:1016A200880F97FB991F61F09F3F79F08795089506
:1016B200121613061406551FF2CF4695F1DF08C025
:1016C200161617061806991FF1CF86957105610542
:0416D20008940895DB
:1016D600CF93DF939C01FB01DC011196CD91DC9148
:1016E6001297D583C4838E819F81978386838E814B
:1016F6009F81DC0115967C936E9314977F836E838E
:1017060033872287F90180818F5F8083DF91CF91B4
:02171600089534
:101718008130910571F01CF4892B39F008958230DD
:10172800910559F0039769F008958BB380958BBBA9
:10173800089588B3809588BB089585B3809585BB47
:0A174800089582B3809582BB0895D6
:10175200CF92DF92EF92FF926B017C01672B682B95
:10176200692B59F00E94210C40E0C701B6010E948A
:1017720095040E94E002811102C00E944907FF9075
:08178200EF90DF90CF90089575
:10178A00FC010396928381834FEF5FEFBA01438393
:10179A0054836583768390878783928781871082B3
:0217AA000895A0
:1017AC00092E0394000C11F4882352F0BB0F40F463
:1017BC00BF2B11F460FF04C06F5F7F4F8F4F9F4FA3
:0217CC0008957E
:1017CE00CF93DF93EC018881882331F021960E941C
:0E17DE00310C89918111FBCFDF91CF910895DD
:1017EC0057FD03C0659175910895619171910895AC
:0E17FC005058BB27AA270E9486060C94D60BD5
:0E180A000E94830A6894B1110C941B0C08957F
:0E18180000240A9416161706180609060895ED
:0E18260000240A9412161306140605060895EF
:0E183400E894BB2766277727CB0197F9089524
:0C1842008091DA068F5F8093DA0608952B
:0C184E0097F99F6780E870E060E0089563
:08185A00FC01138612860895BB
:081862005D9BFECF8CB90895D7
:08186A000E94AB050C94D60BA3
:061872000E94ED0618952E
:061878009FEF80EC0895D3
:04187E000C940000C6
:101882005461736B312069732072756E6E696E6775
:031892002E0D0018
:00000001FF
