:100000000C942D000C94960F0C94960F0C94960F54
:100010000C94960F0C94960F0C94960F0C94900FD2
:100020000C94960F0C94960F0C94960F0C94960FBC
:100030000C94960F0C94960F0C94960F0C94960FAC
:100040000C94960F0C94960F0C94960F0C94960F9C
:100050000C94960F006006DA800011241FBECFE5D5
:10006000D8E0DEBFCDBFE4E5F0E040E017C0B591D9
:10007000A59135912591059107FD0CC0959185912C
:10008000EF01F92FE82F05900D92A217B307D9F7CA
:10009000FE0104C01D92A217B307E1F7E935F4078A
:0E00A00031F70E949F0B0C945500F894FFCF8F
:0F00AE0073656E646572007265636569766500DF
:0600BD0049444C4500041B
:1000C4002F923F924F925F926F927F928F92AF9254
:1000D400BF92CF92DF92EF920F931F93CF93DF9350
:1000E4001C013A01862E59012801C9010E9490047D
:1000F4008C01892B09F418C18AE290E00E949004D3
:10010400EC01892B61F01C8F0B8F21E0A21AB1083E
:100114000A0D1B1D61147104810429F431C0C80146
:100124000E94570C01C1F301849187FC80818D8F5B
:10013400F301849187FC8081882301F1AE01425E42
:100144005F4FA82DC3010196A11DB8E06B0E711C71
:10015400811C2A2FFC017491A7FD7081FA0171930F
:10016400AF01E82FF92F0196A11D349127FD3081AD
:10017400332321F0681679068A0659F71CA201C0B8
:100184001D8EF4E0FE1518F46894EE24E2F8EA8E6D
:100194005E0122E0A20EB11CC5010E94800FCE01B7
:1001A4000E960E94800FDB87CA8785E090E0A0E06E
:1001B400B0E08E199109A109B1098E879F87A88B98
:1001C400B98BDF8BCE8B84E0FE01B596DF011D92E7
:1001D4008A95E9F719A6A201B101C8010E94D507C1
:1001E40099838883C114D10419F0F601D183C083A3
:1001F4000FB6F8940F928091D8068F5F8093D8063B
:100204008091D0069091D106892BD1F5D093D10657
:10021400C093D0068091D806813009F041C000E433
:1002240016E00F2EF7E7CF2EF6E0DF2EF02DC801F3
:100234000E94DA0E055F1F4F0C151D05C1F783EAF6
:1002440096E00E94DA0E88E996E00E94DA0E8DE8C4
:1002540096E00E94DA0E82E896E00E94DA0E87E7C2
:1002640096E00E94DA0E83EA96E09093CF0680939C
:10027400CE0688E996E09093CD068093CC0610C014
:100284008091D60681110CC0E091D006F091D10680
:10029400928D8A8D891720F0D093D106C093D00611
:1002A4008091D3068F5F8093D306EA8D8091D70621
:1002B4008E1710F4E093D7068BE08E9FF001112483
:1002C400E05CF94F0180F281E02DFF83EE8326810B
:1002D400378139872887A681B7811596BC92AE925B
:1002E4001497B782A682EA8D8E9FF0011124E05CF8
:1002F400F94FFD87EC8780818F5F80830F900FBE5D
:100304008091D606882361F0E091D006F091D10661
:10031400928D8A8D981730F40E94C20981E005C03D
:1003240081E003C081E001C08FEFDF91CF911F9185
:100334000F91EF90DF90CF90BF90AF908F907F9010
:0C0344006F905F904F903F902F900895B5
:10035000CF92DF92EF92FF920F931F93CF93DF9391
:100360008091D206811109C1C090BA06D090BB0617
:10037000E090BC06F090BD068FEFC81AD80AE80AD4
:10038000F80AC092BA06D092BB06E092BC06F09280
:10039000BD06C114D104E104F104B9F48091CE0684
:1003A0009091CF062091CC063091CD063093CF06A8
:1003B0002093CE069093CD068093CC068091D406F0
:1003C0008F5F8093D4060E94980D8091B206909121
:1003D000B306A091B406B091B506C816D906EA06D0
:1003E000FB0610F480E0B4C080E04BE051E0E09107
:1003F000CE06F091CF06908191110DC04FEF5FEFC7
:1004000060E070E04093B2065093B3066093B40688
:100410007093B5069DC0E091CE06F091CF0607809F
:10042000F085E02D0084F185E02D02811381248187
:100430003581C016D106E206F30648F40093B206F1
:100440001093B3062093B4063093B50681C0A485FB
:10045000B585C681D781208531853F832E83C085B0
:10046000D185268137813D832C839F012E5F3F4FAD
:1004700011966D917C9112976217730731F4608524
:10048000718512967C936E931197158614869C91B4
:1004900091509C93A08DB18D109709F1C289D38999
:1004A000648975897F836E83C489D58962897389DC
:1004B0007D836C831196CD91DC911297BF01625FB1
:1004C0007F4FC617D70731F46489758912967C93DC
:1004D0006E931197118E108E9C9191509C93A28DCA
:1004E0009091D7069A1710F4A093D7064A9FD0018F
:1004F0001124A05CB94F11960D90BC91A02DB7832B
:10050000A68316966D917C911797718760871696D2
:10051000CD91DC9117973D832C8317963C932E93B6
:100520001697A28D4A9FD0011124A05CB94FB587C0
:10053000A4879C919F5F9C93A091D006B091D10617
:10054000228D5A969C91291708F451CF852F4FCFB1
:10055000E091D006F091D106E28D9BE0E99FF00199
:100560001124E05CF94F9081923008F081E0909185
:10057000D5069923B1F081E014C08091B606909120
:10058000B706A091B806B091B9060196A11DB11D9C
:100590008093B6069093B706A093B806B093B906B9
:1005A00080E0DF91CF911F910F91FF90EF90DF904E
:0405B000CF9008954B
:1005B400CF92DF92EF92FF920F931F93CF93DF932B
:1005C4000FB6F8940F928091D20681508093D20690
:1005D4008091D2068111C6C08091D80681118BC04A
:1005E400C4C0D8011796ED91FC9118970084F18549
:1005F400E02DA08DB18D8289938964897589EC0180
:100604007F836E838489958962897389EC017D83F4
:100614006C83CF010E9611966D917C911297681799
:10062400790731F48489958912969C938E93119756
:10063400118E108E8C9181508C93A485B585868102
:10064400978160857185EC017F836E8380859185B8
:1006540066817781EC017D836C83CF0102961196CC
:100664006D917C9112976817790731F460857185D3
:1006740012967C936E931197158614862C912150B3
:100684002C93A28D2091D7062A1710F4A093D70695
:100694003A9FD0011124A05CB94F11960D90BC91E2
:1006A400A02DB783A68316966D917C9117977187B9
:1006B400608716966D917C911797EB019D838C83CF
:1006C40017969C938E931697A28D3A9FD00111246E
:1006D400A05CB94FB587A4878C918F5F8C93A09150
:1006E400D006B091D106928D5A968C91981748F005
:1006F4004093D50606C0E0E0F0E00DE816E03BE0EC
:1007040041E0D8018C9181116CCFEF2B11F00E9444
:10071400980DC090B606D090B706E090B806F09059
:10072400B906C114D104E104F104A1F0C1E00E94AE
:10073400A8018111C093D506B1E0CB1AD108E10814
:10074400F108A9F71092B6061092B7061092B806EF
:100754001092B9068091D506882331F00E94C2090F
:1007640081E003C080E001C080E00F900FBEDF9104
:10077400CF911F910F91FF90EF90DF90CF9008954C
:100784002F923F924F926F927F928F92AF92BF922D
:10079400CF92DF92EF92FF920F931F93CF93DF9349
:1007A400CDB7DEB72C970FB6F894DEBF0FBECDBF22
:1007B4006C014A875B876C870E831F832887398780
:1007C4001E2DF12C01E03C0180E8882E1301482CF9
:1007D400EEE12E0E311C411CFFE16F0E711C811CD9
:1007E400560188E0A80EB11C0FB6F8940F92F601DA
:1007F400968D878D981710F01230F1F4212F4A85C9
:100804005B856C85C6010E94140BF60193899923BC
:1008140061F0F3E1CF0ED11CB60180E80E945D05C2
:10082400882331F00E94C20903C081110E94C209C9
:100834000F900FBE81E05BC08E819F81A885B98532
:10084400892B8A2B8B2B21F40F900FBE80E04FC095
:10085400F11005C0CE0101960E94FD0EF02E0F90FE
:100864000FBE0E94740F0FB6F8940F92F60181A187
:100874008F3F09F411A2F60182A18F3F09F412A25D
:100884000F900FBEBE016A5F7F4FCE0101960E949A
:100894006809811126C00FB6F8940F92F101949162
:1008A40047FC90810F900FBEF301849187FC8081F7
:1008B400981311C04E815F8168857985C5010E94B6
:1008C400AE0EC6010E94720A0E94DA0281118CCF18
:1008D4000E94C20989CFC6010E94720A0E94DA02EC
:1008E40083CFC6010E94720A0E94DA0280E02C962D
:1008F4000FB6F894DEBF0FBECDBFDF91CF911F912D
:100904000F91FF90EF90DF90CF90BF90AF908F90BA
:0C0914007F906F904F903F902F900895BF
:10092000CF92DF92EF92FF920F931F93CF93DF93BB
:10093000EC010E94740F8091C8069091C906892B22
:1009400041F5EEEAF6E0A4E6B0E0B183A0831382BD
:100950001282ECE3F6E0F093C906E093C806138236
:1009600012821182108288ED95E013969C938E93EB
:100970001297ED93FC939093C5068093C4069093D1
:10098000C7068093C60680E090E89093BF068093E8
:10099000BE06E090BE06F090BF06C7018C239D23E3
:1009A000892B09F06DC0209709F46DC09E012C5F62
:1009B0003F4FC217D30708F069C02115310509F46C
:1009C00068C00091C6061091C7060217130708F405
:1009D00063C0C091AE06D091AF06EEEAF6E002C069
:1009E000FE01EC018A819B818217930720F48881A4
:1009F00099810097A9F78091C8069091C906C817F8
:100A0000D90709F44CC0C080D18084E0C80ED11C45
:100A100088819981918380834A815B81421B530B3A
:100A20004930510550F0CE01820F931FFC015383D2
:100A300042833B832A830E94C70A8A819B81081BC9
:100A4000190B1093C7060093C6062091C406309177
:100A5000C5060217130720F41093C5060093C406B9
:100A6000E82AF92AFB82EA82198218828091C2065A
:100A70009091C30601969093C3068093C20611C05D
:100A8000C12CD12C0EC0C12CD12C0BC0C12CD12C0F
:100A900008C0C12CD12C05C0C12CD12C02C0C12C46
:100AA000D12C0E94DA02C601DF91CF911F910F91E4
:0A0AB000FF90EF90DF90CF900895C3
:100ABA00CF93DF93A82FCB010796A11DFC015A2FD4
:100ACA000E94490FDB011896ED91FC911997A08DB0
:100ADA00B18DC289D389848995899F838E83C4897C
:100AEA00D589828993899D838C839F01225F3F4F99
:100AFA0011968D919C9112978217930731F48489EC
:100B0A00958912969C938E931197118E108E8C91C3
:100B1A0081508C938091D206811152C0A485B585EB
:100B2A00C681D781808591859F838E83C085D18533
:100B3A00868197819D838C839F012E5F3F4F1196FB
:100B4A008D919C9112978217930731F48085918534
:100B5A0012969C938E931197158614868C918150C8
:100B6A008C93A28D8091D7068A1710F4A093D7068A
:100B7A008BE08A9FD0011124A05CB94F11960D9089
:100B8A00BC91A02DB783A68316964D915C911797B9
:100B9A00518740871696CD91DC9117973D832C8318
:100BAA0017963C932E931697A28D8A9FD0011124F3
:100BBA00A05CB94FB587A4878C918F5F8C931CC0BA
:100BCA004DE856E0DA011196CD91DC911297D38B5C
:100BDA00C28B8E819F81958B848B8E819F81DC0154
:100BEA0015963C932E9314973F832E83518F408FF3
:100BFA00DA018C918F5F8C93A091D006B091D106C7
:100C0A00928D5A968C91891720F481E08093D506AB
:0A0C1A0001C080E0DF91CF91089542
:100C24006F927F928F929F92AF92BF92CF92DF92F8
:100C3400EF92FF920F931F93CF93DF93CDB7DEB75D
:100C440029970FB6F894DEBF0FBECDBF8C015B01B0
:100C54002E833F8348875987E12C992493943C0140
:100C640080E8882E6801E3E1CE0ED11C0FB6F8941B
:100C74000F92F801F68CFF20B9F0B501C8010E946B
:100C8400600EFA94F801F68E8085882349F0085F97
:100C94001F4FB80180E80E945D0581110E94C209BE
:100CA4000F900FBE81E059C08E819F81A885B985C0
:100CB400892B8A2B8B2B21F40F900FBE80E04DC023
:100CC400E11005C0CE0101960E94FD0EE92C0F90A3
:100CD4000FBE0E94740F0FB6F8940F92F80181A111
:100CE4008F3F09F411A2F80182A18F3F09F412A2E7
:100CF4000F900FBEBE016A5F7F4FCE0101960E9426
:100D0400680981111DC0882DB3010E94EC0E88234F
:100D140089F04E815F8168857985C6010E94AE0E97
:100D2400C8010E94720A0E94DA0281119FCF0E94B8
:100D3400C2099CCFC8010E94720A0E94DA0296CFAF
:100D4400C8010E94720A0E94DA02882DB3010E942F
:100D5400EC0E882309F48ACF80E029960FB6F89424
:100D6400DEBF0FBECDBFDF91CF911F910F91FF90DA
:100D7400EF90DF90CF90BF90AF909F908F907F9037
:040D84006F900895CF
:100D88008F929F92AF92BF92CF92DF92EF92FF9293
:100D9800CF93DF936B017C01C42F8090BA069090AB
:100DA800BB06A090BC06B090BD068091D00690917D
:100DB800D10602960E94C00D8FEFC816D806E1042E
:100DC800F104B1F5CC23A1F1E7E7F6E0A181B28106
:100DD800C091D006D091D106BF83AE83C091D00612
:100DE800D091D10616968D919C91179799878887EF
:100DF8001696CD91DC9117978091D0069091D106E7
:100E080002969D838C838091D0069091D10602969C
:100E180017969C938E931697A091D006B091D10601
:100E28001D96FC93EE931C9780818F5F80833FC053
:100E3800C80CD91CEA1CFB1CE091D006F091D10625
:100E4800C282D382E482F582C814D904EA04FB047E
:100E580068F46091D0067091D1068091CC0690918B
:100E6800CD066E5F7F4F0E94DD0B21C06091D006DA
:100E78007091D1068091CE069091CF066E5F7F4F1C
:100E88000E94DD0B8091B2069091B306A091B40642
:100E9800B091B506C816D906EA06FB0640F4C0921A
:100EA800B206D092B306E092B406F092B506DF918E
:100EB800CF91FF90EF90DF90CF90BF90AF909F9031
:040EC8008F9008956A
:100ECC0010C00E94660F58F00E945F0F40F029F48A
:100EDC005F3F29F00C947A0F51110C946E0F0C9407
:100EEC00930F0E94E70D68F39923B1F3552391F307
:100EFC00951B550BBB27AA2762177307840738F07D
:100F0C009F5F5F4F220F331F441FAA1FA9F335D0D9
:100F1C000E2E3AF0E0E832D091505040E695001C8D
:100F2C00CAF72BD0FE2F29D0660F771F881FBB1F47
:100F3C00261737074807AB07B0E809F0BB0B802D25
:100F4C00BF01FF2793585F4F3AF09E3F510578F051
:100F5C000C947A0F0C946E0F5F3FE4F3983ED4F32D
:100F6C00869577956795B795F7959F5FC9F7880F25
:100F7C00911D9695879597F90895E1E0660F771F77
:100F8C00881FBB1F621773078407BA0720F0621B08
:0E0F9C00730B840BBA0BEE1F88F7E0950895D7
:100FAA0031E1FC013083319722E220833197A3E3B8
:100FBA00A08331976083319770833197108231977C
:100FCA0060E8608331971082319762E060833197DD
:100FDA0063E06083319764E06083319765E0608302
:100FEA00319766E06083319767E06083319768E004
:100FFA006083319769E06083319760E1608331975C
:10100A003083319732E13083319733E1308331973E
:10101A0034E13083319735E13083319736E13083DB
:10102A00319737E13083319738E13083319739E1AD
:10103A003083319730E23083319731E23083319710
:10104A002083319723E2208331974083319750835D
:10105A00319726E22083319727E22083319728E2CD
:10106A002083319729E22083319720E32083319727
:08107A0021E32083869708950D
:1010820011C00E945F0F38F00E94660F20F039F401
:101092009F3F19F426F40C94930F0EF4E095E7FBAE
:1010A2000C947A0FE92F0E94E70D58F3BA176207E2
:1010B20073078407950720F079F4A6F50C946D0F59
:1010C2000EF4E0950B2EBA2FA02D0B01B901900161
:1010D2000C01CA01A0011124FF27591B99F0593FA5
:1010E20050F4503E68F11A16F040A22F232F342FED
:1010F2004427585FF3CF469537952795A795F0403B
:101102005395C9F77EF41F16BA0B620B730B840B4F
:10111200BAF09150A1F0FF0FBB1F661F771F881F07
:10112200C2F70EC0BA0F621F731F841F48F487955F
:1011320077956795B795F7959E3F08F0B0CF939551
:0E114200880F08F09927EE0F9795879508956E
:10115000EF92FF920F931F93CF93DF93FC01362FF3
:10116000892B09F44DC0278D222309F44BC0022F8F
:1011700010E040A1E42EF12C8FEF9FEFB8010E9408
:10118000C60E6E157F0508F43FC0EF010FB6F89448
:101190000F9260817181CB01249F800D911D1124DC
:1011A00095838483168E73836283015011090E9D8B
:1011B000C0010F9D900D1E9D900D1124860F971F4D
:1011C000978386838FEF81A382A331110DC0808521
:1011D000882391F02896BE0180E80E945D0588234F
:1011E00059F00E94C20908C0CF0108960E94DA0E89
:1011F000CE0143960E94DA0E0F900FBE81E005C02B
:1012000080E003C080E001C080E0DF91CF911F91BA
:081210000F91FF90EF9008958B
:101218000F920FB6F8940F921F9211242F923F92BB
:101228004F925F926F927F928F929F92AF92BF92EE
:10123800CF92DF92EF92FF920F931F932F933F93DA
:101248004F935F936F937F938F939F93AF93BF93C6
:10125800CF93DF93EF93FF93A091D006B091D1067F
:101268000DB60D920EB60D920E94A80181110E9432
:101278001B0AA091D006B091D106CD91CDBFDD91CA
:10128800DEBFFF91EF91DF91CF91BF91AF919F9119
:101298008F917F916F915F914F913F912F911F9106
:1012A8000F91FF90EF90DF90CF90BF90AF909F90FD
:1012B8008F907F906F905F904F903F902F901F90EE
:0812C8000F900FBE0F90089576
:1012D000CF92DF92EF92FF920F931F93CF93DF9302
:1012E000FB010FB6F8940F924091BA065091BB06DD
:1012F0006091BC067091BD0600811181228133810D
:101300000F3FAFEF1A072105310581F1EC01C980CC
:10131000DA80EB80FC80A091D406B881BA1759F02E
:101320004C155D056E057F0530F01082118212822A
:10133000138281E01CC04C195D096E097F094017BA
:1013400051076207730760F4041B150B260B370B5C
:1013500000831183228333830E94FD0E80E007C047
:10136000108211821282138281E001C080E00F900E
:101370000FBEDF91CF911F910F91FF90EF90DF9003
:04138000CF9008956D
:101384000F920FB6F8940F921F9211242F923F924E
:101394004F925F926F927F928F929F92AF92BF9281
:1013A400CF92DF92EF92FF920F931F932F933F936D
:1013B4004F935F936F937F938F939F93AF93BF9359
:1013C400CF93DF93EF93FF93A091D006B091D10612
:1013D4000DB60D920EB60D920E941B0AA091D00676
:1013E400B091D106CD91CDBFDD91DEBFFF91EF91DC
:1013F400DF91CF91BF91AF919F918F917F916F9129
:101404005F914F913F912F911F910F91FF90EF901A
:10141400DF90CF90BF90AF909F908F907F906F9010
:101424005F904F903F902F901F900F900FBE0F90A2
:02143400089519
:101436008091D206882321F081E08093D506089515
:101446001092D5068091D706282F30E09BE0899F21
:10145600F0011124E05CF94F908191110EC04BE030
:101466008150282F30E0429FF001439FF00D112458
:10147600E05CF94F9081992399F39BE0929FA0013C
:10148600939F500D1124DA01A05CB94F1196ED918E
:10149600FC9112970480F581E02D1296FC93EE9351
:1014A60011974D5B594FE417F50729F4448155818F
:1014B600FD01528341839BE0929FF001939FF00DC3
:1014C6001124E05CF94F0180F281E02D2085318501
:0E14D6003093D1062093D0068093D706089558
:1014E400CF92DF92EF920F931F93CF938C010FB69D
:1014F400F8940F92FC01C2A11C16C4F483898111D3
:1015040006C014C0F8018389811107C00FC06801A7
:10151400F3E1CF0ED11C80E8E82E8E2DB6010E9497
:101524005D0581110E94840FC15061F78FEFF801AE
:1015340082A30F900FBE0FB6F8940F92C1A11C1690
:10154400C4F48085811106C014C0F801808581111E
:1015540007C00FC06801F8E0CF0ED11C80E8E82E68
:101564008E2DB6010E945D0581110E94840FC15029
:1015740061F78FEFF80181A30F900FBECF911F91F8
:0A1584000F91EF90DF90CF900895D3
:10158E00CF93DF93DC01EEEAF6E001C0F901208192
:10159E0031812A173B07D0F382819381AF01480F27
:1015AE00591FA417B50749F412964D915C911397E4
:1015BE00840F951F93838283DF0112968D919C91E8
:1015CE001397ED01C80FD91F2C173D07D9F42091A1
:1015DE00C8063091C906C217D30781F02A813B8114
:1015EE00820F931F13969C938E931297C081D18175
:1015FE008881998111969C938E9307C01196DC93E6
:10160E00CE9303C011963C932E93AE17BF0711F0E5
:0A161E00B183A083DF91CF910895FE
:101628000F931F93CF93DF93EC01022F1E8D28A1F8
:101638002223B9F1011116C030E08A819B810E94F2
:10164800950E28A18A819B81820F911D9B838A8395
:101658002C813D818217930720F1888199819B8392
:101668008A831FC030E08E819F810E94950E88A1D9
:1016780090E09195819591092E813F81280F391F1E
:101688003F832E83488159812417350730F42C81F4
:101698003D81820F931F9F838E83023011F41111B5
:1016A80011501F5F1E8F80E0DF91CF911F910F9126
:0216B800089593
:1016BA000F931F93CF93DF93282F362F882361F13F
:1016CA00682F70E08FEF9FEF0E94C60E832F90E085
:1016DA006817790720F1239FC00111248D3D4FEF30
:1016EA00940700F5D32FC22F83960E9490048C0191
:1016FA000097D1F0D11104C0FC019183808304C00A
:10170A008396F80191838083F801C78FD0A361E0A3
:10171A00C8010E94A80808C000E010E005C000E067
:10172A0010E002C000E010E0C801DF91CF911F91E4
:04173A000F9108956E
:10173E00CF93DF9300D0CDB7DEB740E062E081E01B
:10174E000E945D0B909361008093600041E050E039
:10175E0060E070E080E895E20E94380D84E690E04B
:10176E009A8389838091600090916100892BE9F0C2
:10177E00C12CD12CEE24E3948E010F5F1F4F24E673
:10178E0030E04EEA50E060E089E09EE00E946200A8
:10179E0000E010E024E630E045EB50E060E085E448
:0C17AE009EE00E9462000E94920CFFCF9F
:1017BA000F931F93CF93DF93EB01088119812A813D
:1017CA003B810F3F4FEF14072105310521F4FC013E
:1017DA00A185B28511C0DC01139601C0DF01149600
:1017EA00ED91FC91159740815181628173810417B3
:1017FA0015072607370790F71496ED91FC91159770
:10180A00FD83EC83D783C683BF83AE831596DC93AF
:10181A00CE9314979B878A87FC0120812F5F2083B0
:0A182A00DF91CF911F910F910895F7
:10183400E89409C097FB3EF4909580957095619566
:101844007F4F8F4F9F4F9923A9F0F92F96E9BB271C
:101854009395F695879577956795B795F111F8CF98
:10186400FAF4BB0F11F460FF1BC06F5F7F4F8F4F03
:101874009F4F16C0882311F096E911C0772321F0F9
:101884009EE8872F762F05C0662371F096E8862F91
:1018940070E060E02AF09A95660F771F881FDAF7E8
:0A18A400880F9695879597F908952F
:1018AE00CF93DF930097A1F1FC013497228133810E
:1018BE004091BE065091BF06B90164237523672B74
:1018CE0039F160817181672B19F5EF0140955095C3
:1018DE0024233523338322830E94740F2091C6065E
:1018EE003091C7068A819B81820F931F9093C70602
:1018FE008093C606CE010E94C70A8091C0069091C1
:10190E00C10601969093C1068093C0060E94DA022A
:06191E00DF91CF91089556
:10192400CF92DF92EF920F931F930F2EFAECCF2EEC
:10193400F6E0DF2EF02DE12C00E010E025E530E0AC
:101944004DEB50E060E08BEC9CE00E946200813043
:10195400D1F4F8948FEF9FEFA0E0B0E08093B2064B
:101964009093B306A093B406B093B50681E0809338
:10197400D6061092BA061092BB061092BC061092BC
:10198400BD060E94030D1F910F91EF90DF90CF9041
:021994000895B4
:1019960002E816E00F2EF0E4EF2EF6E0FF2EF02D13
:1019A6008091D906882329F10FB6F8940F92D801B1
:1019B6001796ED91FC911897C085D185CE010296B8
:1019C6000E94C00D8091D80681508093D8068091E0
:1019D600D90681508093D9060F900FBE8B8D9C8DB2
:1019E6000E94570CCE010E94570C8091D906811196
:1019F600DBCFF7018081823098F20E94C209D0CFF6
:101A06001BBC89EF8ABD8BE08EBD89B7806189BF1B
:101A1600A091D006B091D106CD91CDBFDD91DEBFAC
:101A2600FF91EF91DF91CF91BF91AF919F918F91F0
:101A36007F916F915F914F913F912F911F910F91E0
:101A4600FF90EF90DF90CF90BF90AF909F908F90D8
:101A56007F906F905F904F903F902F901F900F90C8
:0A1A66000FBE0F90089581E008956F
:101A70009B016AB122953295307F3227207F322731
:101A8000262B2AB92AB1440F551F440F551F440F66
:101A9000551F422B4AB9579ABC01990F880B990BD5
:101AA0000E941C0C9B01AC0160E074E284E799E4A5
:101AB0000E948C0F20E030E040E85FE30E94510F6D
:101AC0000E94580F69B96F3F710511F00CF070BD9D
:021AD000089577
:101AD2000E94EF0D88F09F5798F0B92F9927B751C0
:101AE200B0F0E1F0660F771F881F991F1AF0BA95C0
:101AF200C9F714C0B13091F00E946D0FB1E00895A2
:101B02000C946D0F672F782F8827B85F39F0B93F93
:101B1200CCF3869577956795B395D9F73EF4909572
:0E1B22008095709561957F4F8F4F9F4F08956E
:101B3000E091CE06F091CF06808181110DC08FEF2C
:101B40009FEFA0E0B0E08093B2069093B306A0931D
:101B5000B406B093B5060895E091CE06F091CF0695
:101B60000780F085E02D80819181A281B3818093EF
:101B7000B2069093B306A093B406B093B506089549
:101B8000CF93DF93FC01A285B385C481D581868183
:101B900097819F838E83C681D781848195819D8320
:101BA0008C8311968D919C911297E817F90731F467
:101BB0008681978112969C938E9311971386128635
:0E1BC0008C9181508C938C91DF91CF91089580
:101BCE0057FD9058440F551F59F05F3F71F04795E0
:101BDE00880F97FB991F61F09F3F79F087950895C5
:101BEE00121613061406551FF2CF4695F1DF08C0E4
:101BFE00161617061806991FF1CF86957105610501
:041C0E000894089599
:101C1200CF93DF9300D0CDB7DEB7FC0180819181F5
:101C22009A838983CE0101963C01F0E88F2EEE243F
:101C3200E39400E010E09801682DA3018091600018
:0E1C4200909161000E94C2030E94C209F0CF7F
:101C5000CF93DF93CDB7DEB72B970FB6F894DEBFE7
:101C60000FBECDBF4AE0BE016F5F7F4F0E943E0FA7
:101C7000CE0101960E942F0F2B960FB6F894DEBF6F
:0A1C80000FBECDBFDF91CF91089594
:101C8A00CF93DF9300D0CDB7DEB720E030E0A901D3
:101C9A00BE016F5F7F4F80916000909161000E944A
:101CAA001206813091F789819A810E94280E8DE06F
:061CBA000E94880FEACF32
:101CC000FC0120A12223B1F030E046815781420F70
:101CD000531F57834683848195814817590720F005
:101CE0008081918197838683CB014681578160E80B
:061CF0000E94950E08950C
:101CF600BB27FB015527AA27880F991FAA1FA417E0
:101D060010F0A41B83955051B9F7A05DAA3308F0D3
:101D1600A95DA193009779F7B111B1931192CB0107
:041D26000C941F0FEB
:101D2A00CF92DF92EF92DC016A01E62E280F391F6B
:101D3A00A217B30751F0F6014491E7FC40814D9395
:101D4A004FEFC41AD40AE40AF3CFEF90DF90CF9092
:021D5A000895EA
:101D5C00CF92DF92EF92FF926A017B016091D006E5
:101D6C007091D106625F7F4F0E94DD0B41E0C7018D
:101D7C00B6010E94C406FF90EF90DF90CF900895BB
:101D8C00AA1BBB1B51E107C0AA1FBB1FA617B70795
:101D9C0010F0A61BB70B881F991F5A95A9F78095B1
:081DAC009095BC01CD010895E2
:101DB400FC010396928381834FEF5FEF60E070E054
:101DC400438354836583768390878783928781874F
:041DD40010820895DC
:101DD8000FB6F8940F92A82FCB014E96A11DFC01C7
:101DE8009491A7FD90810F900FBE81E0911180E042
:021DF80008954C
:101DFA002091D406FC0120834091BA065091BB067B
:101E0A006091BC067091BD064183528363837483DB
:021E1A00089529
:101E1C00092E0394000C11F4882352F0BB0F40F4EC
:101E2C00BF2B11F460FF04C06F5F7F4F8F4F9F4F2C
:021E3C00089507
:101E3E00DC01FC01672F71917723E1F7329704C023
:101E4E007C916D9370836291AE17BF07C8F30895AE
:101E5E00CF93DF93EC018881882331F021960E9485
:0E1E6E00880F89918111FBCFDF91CF910895EC
:101E7C00BB274A3031F4992322F4BDE29095819529
:061E8C009F4F0C947C0E38
:101E920057FD03C0659175910895619171910895FF
:0E1EA2005058BB27AA270E9441080C940E0F2F
:0E1EB0000E94690D6894B1110C946E0F089594
:0E1EBE0000240A941616170618060906089541
:0E1ECC0000240A941216130614060506089543
:0E1EDA00E894BB2766277727CB0197F9089578
:0C1EE8008091D2068F5F8093D20608958F
:0C1EF40097F99F6780E870E060E00895B7
:081F0000FC011386128608950E
:081F080081E08093D5060895E5
:081F10005D9BFECF8CB9089522
:081F18000E9466070C940E0FF5
:061F20000E940C09189557
:061F26009FEF80EC08951E
:041F2C000C94000011
:00000001FF
